:020000040800F2
:10000000C006002089010008C9100008C1100008BE
:10001000C510000891020008E91000080000000067
:10002000000000000000000000000000D1100008E7
:100030009502000800000000CD100008D51000084F
:10004000A3010008A3010008A3010008A301000800
:10005000A3010008A3010008A3010008A3010008F0
:10006000A3010008A3010008A3010008A3010008E0
:10007000A3010008A3010008A3010008A3010008D0
:10008000A3010008A3010008A3010008A3010008C0
:10009000A3010008A3010008A3010008A3010008B0
:1000A000A3010008A3010008A3010008A3010008A0
:1000B000DD100008A301000800000000A3010008F3
:1000C000A30100080000000000000000A3010008D8
:1000D00000000000A3010008A301000800000000C8
:1000E000A3010008A3010008A301000800F002F822
:1000F00000F03AF80AA090E8000C82448344AAF188
:100100000107DA4501D100F02FF8AFF2090EBAE885
:100110000F0013F0010F18BFFB1A43F0010318473B
:10012000B8130000D8130000103A24BF78C878C173
:10013000FAD8520724BF30C830C144BF04680C60ED
:10014000704700000023002400250026103A28BF35
:1001500078C1FBD8520728BF30C148BF0B60704739
:100160001FB51FBD10B510BD00F058F81146FFF7C0
:10017000F7FF01F08DF800F076F803B4FFF7F2FF17
:1001800003BC00F07DF8000009488047094800479B
:10019000FEE7FEE7FEE7FEE7FEE7FEE7FEE7FEE737
:1001A000FEE7FEE704480549054A064B7047000094
:1001B000D9100008ED000008C0000020C006002093
:1001C000C0020020C00200204FF0000200B513461C
:1001D00094469646203922BFA0E80C50A0E80C5067
:1001E000B1F12001BFF4F7AF090728BFA0E80C5018
:1001F00048BF0CC05DF804EB890028BF40F8042B11
:1002000008BF704748BF20F8022B11F0804F18BF7D
:1002100000F8012B7047704770477047754600F033
:100220002BF8AE4605006946534620F00700854688
:1002300018B020B5FFF7B6FFBDE820404FF000062C
:100240004FF000074FF000084FF0000BAC46ACE851
:10025000C009ACE8C009ACE8C009ACE8C00921F0AD
:1002600007018D46704710B50446AFF30080204665
:10027000BDE81040FFF781BF004870471000002024
:1002800001491820ABBEFEE72600020070470000BF
:10029000FEE7000070470000B0B5044600F020F90A
:1002A000054640F20000C2F200000078611C18BF51
:1002B000044400BF00F014F9401BA042FAD3B0BDC3
:1002C0002DE9F04F82B00E68002E00F0F98040F268
:1002D0000C4C41F200024FF6FF7EC4F2010CC4F256
:1002E0000102032700240123C1F2100E4FF0000B7E
:1002F0004FF00009904208BF022700974CE000BF72
:1003000040F60042C4F20102009F904208BF01275C
:1003100004F00C030F229A402AEA020207FA03F3C0
:100320004FEA9B051A4346F82520D1F804A040F275
:100330000045C4F201055FEACA322A6854BF22EAC6
:10034000080242EA08022A606A685FEA8A3354BFF8
:1003500022EA080242EA08026A605FEACA23AA683F
:1003600054BF22EA080242EA08025FEA8A23AA602E
:10037000DCF800204FF0010354BF22EA080242EAF1
:100380000802CCF800200E680BF1010B36FA0BF2D4
:1003900004F1040400F0948003FA0BF816EA080F45
:1003A000F1D04E68764511DC122E55D8DFE806F004
:1003B000340A444854545454545454545454545483
:1003C000544C5000D1F80C9046E000BF4FF6FF723D
:1003D000C1F2210296420FDC0022C1F211029642C4
:1003E0001AD00022C1F21202964215D00022C1F2A8
:1003F0002102964210D02FE00022C1F22202964242
:100400000AD00022C1F23102964205D00022C1F288
:100410003202964220D100BF8A684AB1012A14BF35
:10042000C0F81480C0F810804FF0080914E000BF35
:100430004FF0040910E000BFCA6802F108090BE0A0
:100440004FF0000908E000BFCA6802F1040903E0A8
:10045000CA6802F10C0900BF22460646BBF1080F2C
:1004600024BF203A043637680F25954027EA050552
:1004700009FA02F22A433260CA79D2067FF583AFC5
:1004800041F21803C4F202031A6842F001021A6032
:100490001A6802F001020192019A40F20042C4F28D
:1004A0000102A2F57E762BF0030256F802A040F678
:1004B0000002C4F2010290427FF422AF002727E736
:1004C00002B0BDE8F08F00008068084018BF01202E
:1004D00070470000002A08BF09040161704700004E
:1004E00040F2B800C2F200000068704740F200001D
:1004F00040F2B801C2F20000C2F2000100780A68BE
:10050000104408607047000080B542F20000C4F259
:100510000200016841F010010160032000F086F83C
:100520000F2000F005F800F027F8002080BD000043
:1005300070B540F20006C2F2000640F208013278BF
:10054000C2F200014FF47A730968B3FBF2F2044679
:10055000B1FBF2F1084600F033FB0F2C4FF0010520
:1005600008D838B94FF0FF3021460022002500F0AE
:1005700031F87460284670BD82B041F21800C4F2B0
:100580000200016841F001010160016801F0010110
:1005900001910199416841F080514160406800F04B
:1005A00080500090009802B070470000002848BFBB
:1005B0007047C1B200F01F00012202FA00F04EF2B3
:1005C0000012CEF2000242EAD10121F003010860DC
:1005D0007047000010B54EF60C5CCEF2000CDCF853
:1005E0000030C3F3022E8EF00704042C28BF04242D
:1005F000BEF103034FF0FF3E0EFA04F438BF0023B0
:10060000A14399400EFA03F39A43114300F00F02FD
:1006100000F160430901043A03F564436244002891
:1006200048BF02F10C03197010BD00004EF60C51CA
:10063000CEF200010A684FF6FF031A4060F30A2267
:1006400042F0806040F0FD70086070472DE9F04393
:1006500081B0002800F0858042F20008C4F2020850
:100660000446D8F800000D4600F0070088420CD27E
:10067000D8F8000020F007002843C8F80000D8F898
:10068000000000F00700A8426BD1206841F2040985
:100690008107C4F2020917D5410705D5D9F8001022
:1006A00041F4E061C9F80010010705D5D9F8001040
:1006B00041F46051C9F80010D9F80010A26821F087
:1006C000F0011143C9F80010C00741D1D8F800006B
:1006D00000F00700A8420CD9D8F8000020F007006D
:1006E0002843C8F80000D8F8000000F00700A8422E
:1006F00037D12068410707D5D9F80010E26821F406
:10070000E0611143C9F80010000708D5D9F80000CE
:10071000216920F4605040EAC100C9F80000D9F80E
:10072000002002F00C00082841F20020C0F27A00FC
:1007300050D141F2C643C2F38341C0F60003595C75
:10074000D2033BD440F60010C0F23D00484341E0E4
:10075000606802280AD001282AD159F8041C8903AC
:1007600008D4012001B0BDE8F08300BF59F8041C93
:100770008901F6D5D9F8001021F003010843C9F822
:100780000000FFF7ADFE064641F28837D9F80000B9
:10079000616800F00C00B0EB810F97D0FFF7A0FE6E
:1007A000801BB842F2D9032001B0BDE8F08300BF3E
:1007B00059F8041C8907D4D5DCE700BFD9F800201C
:1007C00041F2B443C2F34042C0F600039A5C48438E
:1007D000B0FBF2F0D9F8001041F2B642C1F30311B8
:1007E000C0F60002515C40F2080220FA01F140F22A
:1007F0000400C2F200000068C2F200021160FFF7BC
:1008000097FE002001B0BDE8F08300002DE9F04123
:1008100082B0002868D00446007841F20006C00784
:10082000C4F2020625D0706800F00C0004281BD02A
:10083000706800F00C00082802D17068C00313D45F
:100840006068002800F06881B0F5A02F00F07C817E
:10085000B0F5803F00F07C81306820F4803030605B
:10086000306820F4802076E13068800301D560682C
:10087000D0B32078800718D5706810F00C0F07D01F
:10088000706800F00C0008286ED17068C0036BD44B
:100890003068800702D52069012825D13068616958
:1008A00020F0F80040EAC1003060207800071FD433
:1008B0002078400732D4E56995B1706800F00C00EB
:1008C000082840F08F80012D0ED07068216A00F456
:1008D00080328A4208D1616A00F47010884203D1E4
:1008E000002002B0BDE8F081012002B0BDE8F08137
:1008F000A069002862D00020C4F242200121C0F883
:100900008014FFF7EDFD0546706A800700F18C80CA
:10091000FFF7E6FD401B0228F6D92AE1F06910F046
:10092000805808D1F06940F08050F061F06900F023
:1009300080500090009847F20007C4F20007386822
:10094000C00529D4386840F480703860FFF7C8FDCE
:10095000054600BF3868C0051ED4FFF7C1FD401B27
:100960006428F7D905E100BF2069002840F20000A3
:10097000C4F2422000F0828001210160FFF7B0FD47
:10098000054600BF306880073FF588AFFFF7A8FD38
:10099000401B0228F6D9ECE0E068002800F08080D7
:1009A000052800F09780012800F09880306A20F038
:1009B00001003062306A20F0040092E00020C4F2AE
:1009C00042200021C0F88014FFF78AFD054600BFD1
:1009D000706A80077FF56CAFFFF782FD401B02282D
:1009E000F6D9C6E00027C4F2422700203866FFF798
:1009F00077FD022D05460BD13068800140F1BE80A5
:100A0000FFF76EFD401B02284FF00300F4D968E7A2
:100A1000306880017FF564AFFFF762FD401B02285C
:100A20004FF00300F4D95CE740F20800C2F2000086
:100A3000006844F6D351C1F26201A0FB0101480AEB
:100A4000019000BF00BF0198411E002801913FF4B2
:100A50002FAF00BF0198411E002801913FF428AF3D
:100A600000BF0198411E002801913FF421AF00BF53
:100A70000198411E00280191E4D119E7002101608D
:100A8000FFF72EFD054600BF306880077FF50DAFEC
:100A9000FFF726FD401B02284FF00300F4D920E7A2
:100AA000306A20F001003062306A20F004003062C9
:100AB000FFF716FD054641F2883700BF306A800710
:100AC00020D5FFF70DFD401BB8424FF00300F5D9CC
:100AD00007E700BF306A40F004003062306A40F03F
:100AE00001003062FFF7FCFC054641F2883700BF89
:100AF000306A800706D4FFF7F3FC401BB842F7D9F1
:100B000037E000BFB8F1000F7FF4D5AEF06920F0F8
:100B10008050F061CFE600BF306820F48030306054
:100B2000306820F480203060FFF7DAFC054600BF13
:100B3000306880037FF59DAEFFF7D2FC401B642830
:100B40004FF00300F4D9CCE6306840F480203060E8
:100B5000306840F480303060FFF7C2FC054600BFCB
:100B6000306880033FF585AEFFF7BAFC401B642870
:100B7000F6D9032002B0BDE8F08100BF206AB0F5CD
:100B8000803F05D17168A26821F400311143716082
:100B90007168626A21F47411114308437060012086
:100BA0003866FFF79DFC0446306880013FF598AE3B
:100BB000FFF796FC001B02284FF00300F4D990E6E3
:100BC000411E0020B0EB116F1CBF012070474EF298
:100BD0001002CEF2000251604EF62351CEF2000117
:100BE000F0230B7007219060116070477047000080
:100BF0007047000010B590F83C20012A4FF0020227
:100C000025D080F83D200268D2F804E0D2F808C070
:100C10000C682EF070032343B2F1804F53600BD069
:100C200042F60043C4F201039A4205D040F2004369
:100C3000C4F200039A4204D149682CF0800319439E
:100C400091600121002280F83D1080F83C20104680
:100C500010BD0000002804BF0120704710B50446F5
:100C600090F83D0028B9002084F83C00204600F0B0
:100C700051F8022084F83D00206842F6004C0268DA
:100C8000B0F1804FC4F2010C18BF604504D1A368D5
:100C900022F070021A4305E040F20043C4F2000360
:100CA0009842F4D0B0F1804F18BF604504D1236959
:100CB00022F440721A4305E040F20043C4F20003FC
:100CC0009842F4D0A16922F08002D4F804E0E368ED
:100CD000114360450160C362C0F828E002D1616938
:100CE000CCF8301001214161002084F8461084F8CE
:100CF0003E1084F83F1084F8401084F8411084F8C6
:100D0000421084F8431084F8441084F8451084F8A5
:100D10003D1010BD80B582B00068B0F1804F1CBF9F
:100D200002B080BD41F21C00C4F202000168002242
:100D300041F0010101600068002100F00100019014
:100D400001981C20FFF746FC1C2002B0BDE8804043
:100D5000FFF72CBC90F83D1001291CBF0120704703
:100D6000022180F83D100068C168B0F1804F41F069
:100D70000101C1600BD042F60041C4F2010188427A
:100D800005D040F20041C4F20001884206D18168DA
:100D900001F00701062904BF00207047016841F0F7
:100DA000010101600020704780B590F83C20012AC5
:100DB0004FF0020200F0BF8080F83D20D0F800C064
:100DC0004FF67772DCF8083023EA0202CCF80820EC
:100DD0000B683F2B1CDD5F2B20DD602B50D0B3F563
:100DE000005F6DD0702B40F0A080D1E901E3C968AD
:100DF000DCF8082043EA0E0322F47F4243EA012193
:100E00001143CCF80810DCF8081041F077018AE0B3
:100E10001F2B29DC63B3102B2AD086E0402B63D034
:100E2000502B40F08280D1F804E0C968DCF8203013
:100E3000DCF8202022F00102CCF82020DCF8182079
:100E400022F0F00242EA011123F00A0242EA0E0205
:100E5000CCF81810CCF82020DCF8081041F057012D
:100E600021F020015FE000BF202B01D0302B5CD1AE
:100E7000DCF8081021F07001194341F0070152E03D
:100E8000D1F804E0C968DCF8203023F01003CCF876
:100E90002030DCF81830DCF8202023F4704322F0F6
:100EA000A00243EA013142EA0E12CCF81810CCF845
:100EB0002020DCF8081041F0670121F0100132E039
:100EC000D1E901E3C968DCF8082043EA0E0322F403
:100ED0007F4243EA01211143CCF80810DCF80810E6
:100EE00041F480411FE000BFD1F804E0C968DCF89C
:100EF0002030DCF8202022F00102CCF82020DCF8A1
:100F0000182022F0F00242EA011123F00A0242EA1C
:100F10000E02CCF81810CCF82020DCF8081041F0B4
:100F2000470121F03001CCF808100121002280F89F
:100F30003D1080F83C20104680BD00007047000046
:100F400010B5016804460869800744BFC8685FEAB5
:100F5000807039D40869400744BFC8685FEA4070B0
:100F60003ED40869000744BFC8685FEA007045D4F2
:100F70000869C00644BFC8685FEAC0604AD408690F
:100F8000C0071CBFC8685FEAC07051D1086900067D
:100F900044BFC8685FEA006052D40869400644BF95
:100FA000C8685FEA406053D40869800646BFC868D5
:100FB0005FEA806010BD6FF0200220460A61BDE844
:100FC0001040FFF715BE00BF6FF00200086101205E
:100FD00020778869800743D02046FFF7AFFF45E0C0
:100FE0006FF00400086102202077886910F4407FC8
:100FF00040D02046FFF7A2FF42E000BF6FF008009C
:10100000086104202077C86980073DD02046FFF79B
:1010100095FF3FE06FF01000086108202077C86955
:1010200010F4407F3AD02046FFF788FF3CE000BF35
:101030006FF001000861204600F03EF82168A5E746
:101040006FF0800008612046FFF7D0FD2168A4E71B
:101050006FF040000861204600F030F82168A3E7F7
:10106000204600F025F8204600F024F821680020F2
:1010700020776FE7204600F01BF8204600F01AF8B2
:101080002168002020776CE7204600F011F8204608
:1010900000F010F821680020207769E7204600F072
:1010A00007F8204600F006F821680020207766E760
:1010B0007047000070470000704700007047000054
:1010C000FEE70000FEE70000FEE7000070470000BA
:1010D00070470000FFF70ABA7047000040F2700046
:1010E000C2F20000FFF72CBFFEE7000010B51E2083
:1010F000FFF7D2F840F60044C4F2010420464FF452
:1011000080510022FFF7E6F920464FF400510122FA
:10111000FFF7E0F920464FF480410022FFF7DAF9AB
:1011200020464FF400410022FFF7D4F920464FF447
:1011300080610022FFF7CEF920464FF400610122C2
:10114000FFF7C8F920464FF400610022FFF7C2F90B
:101150000020282100F038F800200C2100F034F89D
:101160000020062100F030F800200121BDE81040E9
:1011700000F02AB810B51446032815D8DFE800F0AF
:1011800002060A0E6FF07F00484009E0A1F140001E
:1011900006E000BFA1F1700002E000BFA1F1300045
:1011A000C1B2002000F010F82078002808BF10BD60
:1011B000013C00BFC1B2012000F006F8A078013464
:1011C0000028F7D110BD000070B5064602200D467C
:1011D000FFF762F840F60044C4F20104002E18BF85
:1011E000012620464FF480613246FFF773F9EA0981
:1011F00020464FF40041FFF76DF9C5F380122046F9
:101200004FF48041FFF766F9C5F3401220464FF4D2
:101210000051FFF75FF9C5F3001220464FF48051EB
:10122000FFF758F920464FF400610122FFF752F909
:1012300020464FF400610022FFF74CF9C5F3C002CD
:1012400020464FF40041FFF745F9C5F380022046E0
:101250004FF48041FFF73EF9C5F3400220464FF4BA
:101260000051FFF737F905F0010220464FF4805195
:10127000FFF730F920464FF400610122FFF72AF909
:1012800020464FF400610022BDE87040FFF722B90C
:1012900090B0FFF739F906AC201D2421FEF794FF2A
:1012A0000220069001200A9010200B900025204675
:1012B0000D95FFF7ABFA28B1EFF3108072B600BFBF
:1012C000FEE700BF0F20CDE9000568460021CDE90B
:1012D00002550495FFF7BAF920B1EFF3108072B60A
:1012E000FEE700BF41F21800C4F20200016840F6B8
:1012F000000441F0200101600168C4F2010401F022
:101300002001069106990168002241F00401016064
:101310000168422601F00401069106990168002740
:1013200041F0080101600068422100F008000690C9
:1013300006982046FFF7CEF804F5806528464FF45E
:101340007C4100224FF47C48FFF7C4F8069606AEB5
:101350004FF001094FF0020A20463146CDE90797C8
:10136000CDF824A0FEF7ACFF102006900020C1F2BB
:101370001100CDE9070720463146FEF7A1FF2846B8
:101380003146CDE90689CDE9087AFEF799FF40F2AA
:101390007000C2F200004FF080414FF6FF720997D3
:1013A000CDE90777CDE90077C0E90017C0E90272FF
:1013B00007618761FFF74EFC20B1EFF3108072B632
:1013C000FEE700BF4FF48050069040F27000C2F27A
:1013D000000006A9FFF7E8FC20B1EFF3108072B619
:1013E000FEE700BF40F27000C2F200006946FFF75E
:1013F00001FC28B1EFF3108072B600BFFEE700BF1A
:1014000040F27000C2F20000FFF7A4FCFFF76EFE8E
:101410000FF260080FF26C090FF2780A0FF2840BDA
:1014200017E000BF012500224F46464620464021D6
:10143000FFF750F8204602212A46FFF74BF800201C
:1014400000213A46FFF796FE012000213246FFF7C1
:1014500091FE20461021FFF737F80028E2D1204600
:101460001021FFF731F80028F3D1002501225F4653
:101470005646DBE746414E204143544956415445C8
:1014800044210000474153204445544543544544BA
:101490002121000046414E204E4F542041435449E3
:1014A000564500004E4F2050524F424C454D53215F
:1014B00021210000010200000000000000000102E4
:1014C00003040607080902030405060708090A0BB6
:1014D0000C0D0E0F10100000F81400080000002082
:1014E0001000000028010008081500081000002066
:1014F000B0060000440100080100000010000000D8
:081500000024F40000000000CB
:04000005080000ED02
:00000001FF
